{
  "contractName": "DappToken",
  "abi": [
    {
      "constant": true,
      "inputs": [],
      "name": "totalSupply",
      "outputs": [
        {
          "name": "",
          "type": "uint256"
        }
      ],
      "payable": false,
      "stateMutability": "view",
      "type": "function",
      "signature": "0x18160ddd"
    },
    {
      "inputs": [],
      "payable": false,
      "stateMutability": "nonpayable",
      "type": "constructor",
      "signature": "constructor"
    }
  ],
  "bytecode": "0x608060405234801561001057600080fd5b50620f4240600081905550609e806100296000396000f3fe608060405260043610603f576000357c0100000000000000000000000000000000000000000000000000000000900463ffffffff16806318160ddd146044575b600080fd5b348015604f57600080fd5b506056606c565b6040518082815260200191505060405180910390f35b6000548156fea165627a7a723058207da81a36f5240a08d1b31a32ebb65dd740e40c46b6540c9cc47c44bde9a02b4c0029",
  "source": "//pragma solidity ^0.4.2;\r\npragma solidity >= 0.4.2;\r\ncontract DappToken {\r\n\t// Constructor\r\n\t// Set the total number of tokens\r\n\t// REad the total number of tokens\r\n\tuint256 public totalSupply;\t\r\n//\tfunction DappToken() public {\r\n\tconstructor() public {\r\n\t   totalSupply = 1000000;\r\n\t   \r\n\t}\t\r\n}",
  "sourcePath": "C:/testlaptop-junkinstall-new/token_sale/contracts/DappToken.sol",
  "compiler": {
    "name": "solc",
    "version": "0.5.0+commit.1d4f565a.Emscripten.clang"
  },
  "schemaVersion": "3.0.1",
  "updatedAt": "2021-01-31T01:56:42.358Z",
  "devdoc": {
    "methods": {}
  },
  "userdoc": {
    "methods": {}
  }
}